:100000000C9463000C948B000C948B000C948B006C
:100010000C948B000C948B000C948B000C948B0034
:100020000C948B000C948B000C948B000C948B0024
:100030000C948B000C948B000C948B000C948B0014
:100040000C944D120C948B000C9488140C94D614C0
:100050000C948B000C948B000C948B000C948B00F4
:100060000C948B000C948B000000000024002700EF
:100070002A0000000000250028002B0000000000DE
:1000800023002600290004040404040404040202DA
:100090000202020203030303030301020408102007
:1000A0004080010204081020010204081020000012
:1000B0000007000201000003040600000000000029
:1000C00000008D00421611241FBECFEFD8E0DEBF26
:1000D000CDBF12E0A0E0B1E0E6EDF0E302C0059094
:1000E0000D92A036B107D9F713E0A0E6B2E001C047
:1000F0001D92A839B107E1F710E0C6ECD0E004C0CA
:100100002297FE010E946518C23CD107C9F70E94E0
:1001100098160C9469180C940000CF92EF920F93EC
:1001200080E692E067E046E025E004E053E0E52E5B
:1001300032E0C32E0E9414120F91EF90CF900895D9
:100140004F925F926F927F928F929F92AF92BF92E7
:10015000CF92DF92EF92FF920F931F93CF93DF9393
:1001600080E692E00E94561162E370E080E090E049
:100170000E94A31280E692E060E071E00E94E51721
:1001800062E370E080E090E00E94A31280E692E0DB
:100190000E94561162E370E080E090E00E94A3129A
:1001A00080E692E060E071E00E94E51762E370E0B3
:1001B00080E090E00E94A3120BE8602E02E0702E17
:1001C0001DEB812E12E0912EB8EBAB2EB2E0BB2ED0
:1001D000AEEACA2EA2E0DA2EF0E9EF2EF2E0FF2E10
:1001E00005E912E06AE972E04FE952E024EA32E000
:1001F000C9EAD2E0A3EBB2E0E2EC4E2EE2E05E2EE2
:1002000081E090E021C0F30111923F01F4011192CD
:100210004F01F50111925F01F60111926F01F70193
:1002200011927F01F80111928F01FB011192BF0120
:10023000FA011192AF01F90111929F0119921D92D9
:10024000F20111922F01019685309105E4F290930D
:100250002C0280932B02DF91CF911F910F91FF9081
:10026000EF90DF90CF90BF90AF909F908F907F9056
:100270006F905F904F900895BC0184309105E1F13B
:10028000853091058CF48130910539F182309105EA
:100290001CF40097E9F050C08230910519F18330C9
:1002A000910509F049C023C087309105A1F188303C
:1002B00091053CF48530910521F186309105E1F5F9
:1002C00025C08830910561F189309105A9F52DC0CF
:1002D00080E692E060E171E02CC080E692E063E1AC
:1002E00071E027C080E692E066E171E022C080E61E
:1002F00092E069E171E01DC080E692E06CE171E09E
:1003000018C080E692E06FE171E013C080E692E0F1
:1003100062E271E00EC080E692E065E271E009C041
:1003200080E692E068E271E004C080E692E06BE271
:1003300071E00E94E517089580E692E04AE050E0FF
:100340000E94D2170895AF92BF92CF92DF92EF92A0
:10035000FF920F931F93CF93DF93EB015A018430E9
:10036000910521F1853091054CF482309105A1F081
:1003700083309105B4F4019771F509C08630910579
:10038000F9F086309105BCF0079729F51EC080E68C
:1003900092E06EE271E01DC080E692E062E371E0FF
:1003A00018C080E692E066E371E013C080E692E058
:1003B0006AE371E00EC080E692E06EE371E009C08E
:1003C00080E692E062E471E004C080E692E066E4D8
:1003D00071E00E94E51780E692E06AE471E00E9415
:1003E000E517C7010E943C0180E692E06DE471E0F0
:1003F0000E94E517C8010E943C0180E692E06DE48E
:1004000071E00E94E517C6010E943C0180E692E07F
:100410006FE471E00E94E517CE010E943C0180E686
:1004200092E061E571E00E94E517C5010E943C0180
:10043000DF91CF911F910F91FF90EF90DF90CF90C0
:10044000BF90AF9008956F927F928F929F92AF92DC
:10045000BF92CF92DF92EF92FF920F931F93CF93B1
:10046000DF930E944D103C010E9445104C010E94F8
:100470003D105C010E9425108C010E9435107C010A
:100480000E9420106C010E942D10EC0180E692E089
:100490000E94561180E692E060E040E00E941F1149
:1004A000CE01B301A40195010E94A3018091B30282
:1004B000882309F04EC78091B402882309F049C708
:1004C0008091B502882309F044C78091B602882341
:1004D00009F03FC780E692E060912D0241E00E9462
:1004E0001F1180E692E063E571E00E94E5178091BC
:1004F0008B02813029F480E692E06CE571E004C063
:1005000080E692E06FE571E00E94E51780E692E0F8
:1005100063E671E00E94E51780918C02813029F436
:1005200080E692E06CE571E004C080E692E06FE561
:1005300071E00E94E51780E692E068E671E00E94B3
:10054000E51780918D02813029F480E692E06CE518
:1005500071E004C080E692E06FE571E00E94E5176B
:1005600080E692E06DE671E00E94E51780918E02D0
:10057000813029F480E692E06CE571E004C080E609
:1005800092E06FE571E00E94E51780912D02909155
:100590002E02019790932E0280932D0262E370E069
:1005A00080E090E00E94A31280912D0290912E0293
:1005B0008B5E9F4F31F480E190E090932E02809308
:1005C0002D028CE00E943414892B39F48DE00E94B6
:1005D0003414892B11F40E94A00081E10E9434148C
:1005E000892B09F068C481E090E090932C028093FD
:1005F0002B021092880211E027E0E22EF12C04C2B7
:1006000080E692E00E94561180E692E062E771E097
:100610000E94E51760912B0270912C0280E692E017
:100620004AE050E00E94D21780E692E064E771E071
:100630000E94E51780E10E943414892B91F480E137
:100640000E943414892BD9F380912B0290912C02B3
:10065000019690932C0280932B02059714F010932F
:1006600088028EE00E943414892B71F48EE00E947F
:100670003414892BD9F380917802909179020197F3
:100680009093790280937802809178029091790218
:1006900097FD03C08F3F910521F4109279021092CB
:1006A00078028FE00E943414892B71F48FE00E944D
:1006B0003414892BD9F380917802909179020196B4
:1006C00090937902809378028091780290917902D8
:1006D000089724F0F0927902E092780280E692E0A6
:1006E00060E041E00E941F11E0912B02F0912C028A
:1006F000E657FD4F8081813029F480E692E067E87B
:1007000071E004C080E692E06FE571E00E94E517B9
:10071000E0912B02F0912C02E355FD4F8081813056
:1007200029F480E692E06BE871E004C080E692E094
:100730006EE871E00E94E517E0912B02F0912C0227
:10074000E157FD4F8081813029F480E692E06BE82B
:1007500071E004C080E692E06EE871E00E94E51767
:10076000E0912B02F0912C02EC56FD4F80818130FC
:1007700029F480E692E061E971E004C080E692E04D
:1007800065E971E00E94E517E0912B02F0912C02DF
:10079000E756FD4F8081813029F480E692E06BE8D6
:1007A00071E004C080E692E06EE871E00E94E51717
:1007B000E0912B02F0912C02E256FD4F80818130B6
:1007C00029F480E692E061E971E004C080E692E0FD
:1007D00065E971E00E94E517E0912B02F0912C028F
:1007E000ED55FD4F8081813029F480E692E06BE881
:1007F00071E004C080E692E06EE871E00E94E517C7
:10080000E0912B02F0912C02E855FD4F8081813060
:1008100029F480E692E061E971E004C080E692E0AC
:1008200065E971E00E94E517809178029091790264
:100830008330910509F468C08430910554F4813007
:10084000910581F1823091050CF045C0892B89F02A
:10085000D5C08530910509F489C0853091050CF427
:100860006CC08630910509F499C0079709F0C6C09D
:10087000ADC08CE00E943414892B39F4E0912B0236
:10088000F0912C02E657FD4F10838DE00E94341446
:10089000892B09F0B3C0E0912B02F0912C02E657AE
:1008A000FD4FABC08CE00E943414892B39F4E091E9
:1008B0002B02F0912C02E355FD4F10838DE00E9436
:1008C0003414892B09F09AC0E0912B02F0912C028C
:1008D000E355FD4F92C08CE00E943414892B39F40B
:1008E000E0912B02F0912C02E157FD4F10838DE037
:1008F0000E943414892B09F081C0E0912B02F09101
:100900002C02E157FD4F79C08CE00E943414892BF2
:1009100039F4E0912B02F0912C02EC56FD4F10833C
:100920008DE00E943414892B09F068C0E0912B02FD
:10093000F0912C02EC56FD4F60C08CE00E94341404
:10094000892B39F4E0912B02F0912C02E756FD4FF0
:1009500010838DE00E943414892B09F04FC0E09180
:100960002B02F0912C02E756FD4F47C08CE00E940D
:100970003414892B39F4E0912B02F0912C02E256C9
:10098000FD4F10838DE00E943414892BB9F5E0915E
:100990002B02F0912C02E256FD4F2FC08CE00E94FA
:1009A0003414892B39F4E0912B02F0912C02ED558F
:1009B000FD4F10838DE00E943414892BF9F4E091EF
:1009C0002B02F0912C02ED55FD4F17C08CE00E94D8
:1009D0003414892B39F4E0912B02F0912C02E85564
:1009E000FD4F10838DE00E943414892B39F4E0917F
:1009F0002B02F0912C02E855FD4F10826AE070E066
:100A000080E090E00E94A31280918802882309F47C
:100A1000F7CD81E090E090932C0280932B0210920E
:100A200079021092780210928902FF24F39402E076
:100A300010E09BE3E92E87E1D82E38C22F5F3F4FAD
:100A400030932C0220932B0220912B0230912C0208
:100A5000F901E657FD4F8081882381F32530310568
:100A60000CF029C280E692E00E94561180E692E0E6
:100A700062E771E00E94E51760912B0270912C02F1
:100A800080E692E04AE050E00E94D21780E692E0D1
:100A90006FE471E00E94E517E0912B02F0912C02C7
:100AA000E454FD4F6081643081F1653050F4613071
:100AB000D9F06130A0F06230F1F0633009F043C04A
:100AC0001FC0673089F1683028F4653019F166304D
:100AD000D1F525C0683069F16930A9F52FC080E6ED
:100AE00092E060E171E004C080E692E063E171E0D1
:100AF0000E94E5172EC080E692E066E171E0F8CF33
:100B000080E692E069E171E0F3CF80E692E06CE18B
:100B100071E0EECF80E692E06FE171E0E9CF80E630
:100B200092E062E271E0E4CF80E692E065E271E09B
:100B3000DFCF80E692E068E271E0DACF80E692E013
:100B40006BE271E0D5CF80E692E04AE050E00E948F
:100B5000801780E692E061E571E00E94E517E09180
:100B60002B02F0912C02E954FD4F6081643081F139
:100B7000653050F46130D9F06130A0F06230F1F0AE
:100B8000633009F043C01FC0673089F1683028F432
:100B9000653019F16630D1F525C0683069F16930EA
:100BA000A9F52FC080E692E060E171E004C080E624
:100BB00092E063E171E00E94E5172EC080E692E0CA
:100BC00066E171E0F8CF80E692E069E171E0F3CF91
:100BD00080E692E06CE171E0EECF80E692E06FE1BA
:100BE00071E0E9CF80E692E062E271E0E4CF80E676
:100BF00092E065E271E0DFCF80E692E068E271E0CA
:100C0000DACF80E692E06BE271E0D5CF80E692E049
:100C10004AE050E00E94801780E692E069E971E0C6
:100C20000E94E517E0912B02F0912C02EF53FD4F4B
:100C300080E692E060814AE050E00E94801780E107
:100C40000E943414892B91F480E10E943414892B82
:100C5000D9F380912B0290912C02019690932C0253
:100C600080932B02059714F0F09289028EE00E9487
:100C70003414892B71F48EE00E943414892BD9F33B
:100C800080917802909179020197909379028093F4
:100C90007802809178029091790297FD03C08F3F8E
:100CA000910521F410927902109278028FE00E944F
:100CB0003414892B71F48FE00E943414892BD9F3FA
:100CC00080917802909179020196909379028093B5
:100CD00078028091780290917902039724F0109322
:100CE00079020093780280917802909179028130A4
:100CF000910509F44EC08230910509F491C0892B09
:100D000009F0CEC080E692E063E041E00E941F114E
:100D100080E692E063EA71E00E94E51780E692E0E7
:100D20000E944E118CE00E943414892B71F48CE0E7
:100D30000E943414892BD9F3E0912B02F0912C02FC
:100D4000E454FD4F80818F5F8083E0912B02F0910E
:100D50002C02E454FD4F8081883108F0D0828DE070
:100D60000E943414892B71F48DE00E943414892B75
:100D7000D9F3E0912B02F0912C02E454FD4F8081D5
:100D800081508083E0912B02F0912C02E454FD4FBE
:100D900083C080E692E066E041E00E941F1180E699
:100DA00092E063EA71E00E94E51780E692E00E941B
:100DB0004E118CE00E943414892B71F48CE00E9457
:100DC0003414892BD9F3E0912B02F0912C02E954D1
:100DD000FD4F80818F5F8083E0912B02F0912C0288
:100DE000E954FD4F80818C3308F0E0828DE00E9451
:100DF0003414892B71F48DE00E943414892BD9F3BB
:100E0000E0912B02F0912C02E954FD4F808181503A
:100E10008083E0912B02F0912C02E954FD4F3CC0FD
:100E200080E692E061E141E00E941F1180E692E0DD
:100E300063EA71E00E94E51780E692E00E944E119D
:100E40008CE00E943414892B71F48CE00E943414DD
:100E5000892BD9F3E0912B02F0912C02EF53FD4F37
:100E60008081865F80838DE00E943414892B71F429
:100E70008CE00E943414892BD9F3E0912B02F0917D
:100E80002C02EF53FD4F80818A508083E0912B022A
:100E9000F0912C02EF53FD4F80818F3F09F41082B7
:100EA0006AE070E080E090E00E94A31280918902E5
:100EB000882309F4C9CD80E10E943414892B09F0FC
:100EC000FCC080E692E00E94561180918B0288233C
:100ED000C1F480918C028823A1F480918D02882333
:100EE00081F480918E02882361F480E692E065EAC5
:100EF00071E00E94E51768EC70E080E090E00E94ED
:100F0000A31281E090E0CDC0E657FD4F8081813093
:100F100009F0C2C080E692E00E94561180E692E09D
:100F200062E771E00E94E51760912B0270912C023C
:100F300080E692E04AE050E00E94D21780E692E01C
:100F40006FE471E00E94E517E0912B02F0912C0212
:100F5000E454FD4F80E692E060814AE050E00E9458
:100F6000801780E692E061E571E00E94E517E0916C
:100F70002B02F0912C02E954FD4F80E692E0608153
:100F80004AE050E00E94801780E692E069E971E053
:100F90000E94E517E0912B02F0912C02EF53FD4FD8
:100FA00080E692E060814AE050E00E94801780E68F
:100FB00092E060E041E00E941F11E0912B02F0916D
:100FC0002C02E355FD4F8081813031F480E692E0C0
:100FD00066EB71E00E94E517E0912B02F0912C0284
:100FE000E157FD4F8081813031F480E692E069EB7A
:100FF00071E00E94E517E0912B02F0912C02EC5673
:10100000FD4F8081813031F480E692E06CEB71E03D
:101010000E94E517E0912B02F0912C02E756FD4F5C
:101020008081813031F480E692E060EC71E00E94D2
:10103000E517E0912B02F0912C02E256FD4F8081E2
:10104000813031F480E692E063EC71E00E94E517B4
:10105000E0912B02F0912C02ED55FD4F8081813003
:1010600031F480E692E067EC71E00E94E517E091D0
:101070002B02F0912C02E855FD4F8081813031F434
:1010800080E692E06AEC71E00E94E51764E670E0A9
:1010900080E090E00E94A31280912B0290912C029C
:1010A000019690932C0280932B02E0912B02F091F9
:1010B0002C02E530F1050CF427CF1092B302109208
:1010C000B4021092B5021092B60281E090E080C0A6
:1010D000C130D105D9F4FD01E355FD4F2081213008
:1010E00009F046C0FD01E454FD4F808190E0861573
:1010F0009705F1F5FD01E954FD4F808190E08815D9
:101100009905B1F5AE54BD4F2C9332C0C230D10514
:10111000D1F4FD01E157FD4F20812130A1F5FD0102
:10112000E454FD4F808190E08615970561F5FD013F
:10113000E954FD4F808190E08815990521F5AE5462
:10114000BD4F2C9320C0C330D10521F4FD01EC56D6
:10115000FD4F23C0C430D10521F4FD01E756FD4FFA
:101160001CC0C530D10521F4FD01E256FD4F15C06C
:10117000C630D10541F4A0912B02B0912C02FD01A3
:10118000ED55FD4F0AC0C730D105E9F4A0912B02FF
:10119000B0912C02FD01E855FD4F2081213099F4DA
:1011A000FD01E454FD4F808190E08615970559F4C8
:1011B000FD01E954FD4F808190E08815990519F4EF
:1011C000AE54BD4F2C9380912B0290912C0201962E
:1011D00090932C0280932B02A0912B02B0912C02B1
:1011E000A530B1050CF474CF0E9495126093C6022D
:1011F0007093C7028093C8029093C902AAC080E688
:1012000092E00E94561180E692E06EEC71E00E943E
:10121000E5178091B302813021F588E06FEF70E02F
:101220000E9441130E9495122091C6023091C7027C
:101230004091C8025091C902621B730B840B950B3D
:101240002091C20230E040E050E06217730784074B
:10125000950738F01092B30288E060E070E00E94D9
:1012600041138091B402813021F589E06FEF70E085
:101270000E9441130E9495122091C6023091C7022C
:101280004091C8025091C902621B730B840B950BED
:101290002091C30230E040E050E0621773078407FA
:1012A000950738F01092B40289E060E070E00E9487
:1012B00041138091B502813021F58AE06FEF70E033
:1012C0000E9441130E9495122091C6023091C702DC
:1012D0004091C8025091C902621B730B840B950B9D
:1012E0002091C40230E040E050E0621773078407A9
:1012F000950738F01092B5028AE060E070E00E9435
:1013000041138091B602813021F58BE06FEF70E0E0
:101310000E9441130E9495122091C6023091C7028B
:101320004091C8025091C902621B730B840B950B4C
:101330002091C50230E040E050E062177307840757
:10134000950738F01092B6028BE060E070E00E94E2
:1013500041138091B302813009F451CF8091B402DE
:10136000813009F44CCF8091B502813009F447CF28
:101370008091B602813009F442CF6AE070E080E0EB
:1013800090E00E94A312DF91CF911F910F91FF90E7
:10139000EF90DF90CF90BF90AF909F908F907F9015
:1013A0006F9008952F923F924F925F926F927F922B
:1013B0008F929F92AF92BF92CF92DF92EF92FF9265
:1013C0000F931F93CF93DF9380E692E060E142E0BA
:1013D00020E00E945E1186E793E040E855E260E07D
:1013E00070E00E94111588E061E00E94A11389E07D
:1013F00061E00E94A1138AE061E00E94A1138BE0EA
:1014000061E00E94A1138EE060E00E94A1138FE0D2
:1014100060E00E94A1138CE060E00E94A1138DE0C7
:1014200060E00E94A11380E160E00E94A11381E1CD
:1014300060E00E94A11310922E0210922D0280E60D
:1014400092E00E94561180E692E060E040E00E9447
:101450001F1180E692E06EED71E00E94E51760E2F8
:1014600073E080E090E00E94A31280E692E00E9488
:10147000561166E272E080E090E00E94A31280E6DE
:1014800092E06EEE71E00E94E51766E272E080E0A5
:1014900090E00E94A31280E692E00E94561166E25C
:1014A00072E080E090E00E94A31280E692E06EEE8F
:1014B00071E00E94E51766E272E080E090E00E9431
:1014C000A31280E692E00E94561166E272E080E08C
:1014D00090E00E94A31280E692E06EEE71E00E941E
:1014E000E51766E272E080E090E00E94A31286E7D2
:1014F00093E06FEF71E00E94E8170E944D10909307
:101500007B0280937A020E94451090937D02809323
:101510007C020E943D1090937F0280937E020E9485
:10152000251090938102809380020E943510909341
:101530008302809382020E94201090938502809300
:1015400084020E942D109093870280938602C1E04E
:10155000D0E077E1A72EB12C63E6862E912C5BE3D9
:10156000652E712C47E0442E512C3FE1232E312C67
:101570006CC286E793E065E172E00E94E81780E6BE
:1015800092E00E94561160917A0270917B02409124
:101590007C0250917D0220917E0230917F02009169
:1015A000800210918102E0908202F0908302C0904C
:1015B0008402D090850280918602909187020E94D9
:1015C000A30180E10E943414892B41F480E10E9440
:1015D0003414892BD9F381E0809375028EE00E9448
:1015E0003414892B71F48EE00E943414892BD9F3C2
:1015F0008091760290917702019790937702809381
:101600007602809176029091770297FD03C08F3F1A
:10161000910521F410927702109276028FE00E94D9
:101620003414892B71F48FE00E943414892BD9F380
:101630008091760290917702019690937702809341
:1016400076028091760290917702069734F085E0D9
:1016500090E0909377028093760280917602909149
:1016600077028230910509F4AFC08330910534F4DC
:10167000009781F0019709F0E2C159C084309105CB
:1016800009F441C1843091050CF4EDC0059709F0CF
:10169000D6C188C180E692E061E041E00E941F115E
:1016A00080E692E063EA71E00E94E51780E692E04E
:1016B0000E944E118CE00E943414892B71F48CE04E
:1016C0000E943414892BD9F380918602909187026D
:1016D0000196909387028093860280918602909172
:1016E0008702089724F050928702409286028DE08C
:1016F0000E943414892B71F48DE00E943414892BDC
:10170000D9F3809186029091870201979093870286
:10171000809386028091860290918702181619069E
:101720000CF48DC1D0938702C093860288C180E6F5
:1017300092E065E041E00E941F1180E692E063EADA
:1017400071E00E94E51780E692E00E944E118CE065
:101750000E943414892B71F48CE00E943414892B7C
:10176000D9F3809182029091830201969093830233
:10177000809382028091820290918302809724F06C
:1017800030928302209282028DE00E943414892BD1
:1017900071F48DE00E943414892BD9F38091820278
:1017A00090918302019790938302809382028091AB
:1017B000820290918302181619060CF440C1D0934E
:1017C0008302C09382023BC180E692E068E041E080
:1017D0000E941F1180E692E063EA71E00E94E51723
:1017E00080E692E00E944E118CE00E943414892B16
:1017F00071F48CE00E943414892BD9F3809180021B
:101800009091810201969093810280938002809151
:101810008002909181020D9734F08CE090E09093DB
:101820008102809380028DE00E943414892B71F430
:101830008DE00E943414892BD9F38091800290911D
:1018400081020197909381028093800280918002AF
:1018500090918102181619060CF4F1C0D093810200
:10186000C0938002ECC080E692E06BE041E00E9411
:101870001F1180E692E063EA71E00E94E51780E6BE
:1018800092E00E944E118CE00E943414892B71F476
:101890008CE00E943414892BD9F3809184029091BA
:1018A0008502019690938502809384028091840240
:1018B000909185028436910524F090928502809261
:1018C00084028DE00E943414892B71F48DE00E9413
:1018D0003414892BD9F38091840290918502019769
:1018E0009093850280938402809184029091850276
:1018F00097FD04C08F3F910509F0A1C010928502A9
:10190000109284029CC080E692E06EE041E00E946A
:101910001F1180E692E063EA71E00E94E51780E61D
:1019200092E00E944E118CE00E943414892B71F4D5
:101930008CE00E943414892BD9F380917A02909123
:101940007B02019690937B0280937A0280917A02C7
:1019500090917B02489724F0B0927B02A0927A0289
:101960008DE00E943414892B71F48DE00E943414B0
:10197000892BD9F380917A0290917B020197909301
:101980007B0280937A0280917A0290917B0297FD8C
:1019900004C08F3F910509F052C010927B02109253
:1019A0007A024DC080E692E061E141E00E941F11A1
:1019B00080E692E063EA71E00E94E51780E692E03B
:1019C0000E944E118CE00E943414892B71F48CE03B
:1019D0000E943414892BD9F380917C0290917D026E
:1019E000019690937D0280937C0280917C0290917D
:1019F0007D02CC9724F070927D0260927C028DE093
:101A00000E943414892B71F48DE00E943414892BC8
:101A1000D9F380917C0290917D02019790937D0291
:101A200080937C0280917C0290917D0297FD03C09F
:101A30008F3F910521F410927D0210927C0265E0A7
:101A400070E080E090E00E94A312809175028823EC
:101A500009F48FCD60917C0270917D0240917E02ED
:101A600050917F0220918002309181020091820288
:101A700010918302E0908402F090850280917A02B6
:101A800090917B020E948C0FDF91CF911F910F915B
:101A9000FF90EF90DF90CF90BF90AF909F908F908E
:101AA0007F906F905F904F903F902F9008958F920E
:101AB0009F92AF92BF92CF92DF92EF92FF920F93DD
:101AC0001F93CF93DF937B018C01EA012CE330E07D
:101AD00040E050E00E942D186883C801B7012CE354
:101AE00030E040E050E00E942D18122F032FF42E1A
:101AF000E52E622F732F842F952F2CE330E040E0EA
:101B000050E00E942D186983612F702F8F2D9E2D1C
:101B10002CE330E040E050E00E942D18122F032FFC
:101B2000F42EE52E622F732F842F952F28E130E0BD
:101B300040E050E00E942D186A83612F702F8F2D96
:101B40009E2D28E130E040E050E00E942D18790100
:101B50008A01C801B7016C5F7F4F8F4F9F4F27E00D
:101B600030E040E050E00E942D186F5F6B8320E072
:101B7000AA24BB24650101C02F5F822E9924F401A1
:101B8000EE54F84FCF0183709070892B99F4CF01F8
:101B900064E670E00E941A18892B39F4CF0160E9DD
:101BA00071E00E941A18892B29F48EE691E0A0E0DA
:101BB000B0E004C08DE691E0A0E0B0E0A80EB91E50
:101BC000CA1EDB1EC501A0E0B0E0E816F9060A0750
:101BD0001B0790F62E83F401EE54F84F83E0882E15
:101BE000912C8E229F228114910499F4CF0164E6F6
:101BF00070E00E941A18892B39F4CF0160E971E076
:101C00000E941A18892B29F48EE691E0A0E0B0E03A
:101C100004C08DE691E0A0E0B0E0A81AB90ACA0AB3
:101C2000DB0A980187010A191B092C093D09CF011C
:101C300064E670E00E941A187C01CF0160E971E04F
:101C40000E941A18AC01E3E3F2E060E0613051F465
:101C50008114910449F4E114F10441F44115510552
:101C600029F002C0808103C08CE101C08DE190E0C9
:101C7000A0E0B0E0081719072A073B0740F0081B4F
:101C8000190B2A0B3B0B6F5F31966C30F9F66F5FC7
:101C90006D83802F8F5F8C83DF91CF911F910F9188
:101CA000FF90EF90DF90CF90BF90AF909F908F907C
:101CB0000895EF92FF920F931F937B018C01809107
:101CC000E1029091E202A091E302B091E402E816F1
:101CD000F9060A071B0771F0C801B70146ED52E08B
:101CE0000E94570DE092E102F092E2020093E302BB
:101CF0001093E4021F910F91FF90EF9008950E94BE
:101D0000590E2091DC0230E02E54384FC90108955D
:101D10004F925F926F927F928F929F92AF92BF92FB
:101D2000CF92DF92EF92FF920F931F93CF93DF93A7
:101D30004C01DC0116961C91612F70E080E090E070
:101D400020E833E341EE51E00E94FB175B016C0198
:101D500022EB37E0E12FF0E0EE54F84F1DC0C9014F
:101D600083709070892BB1F4C90164E670E00E9421
:101D70001A18892B39F4C90160E971E00E941A1818
:101D8000892B41F480E891E5A1E0B0E0A80EB91EEE
:101D9000CA1EDB1E2F5F3F4F2E173F0701F7D401EE
:101DA00015968C91482E5524C90164E670E00E9476
:101DB0001A187C01C90160E971E00E941A188C01AF
:101DC000C1E0D0E093E0692E712C6222732227C01B
:101DD000C230D10591F46114710479F4E114F10475
:101DE00019F40115110549F480E89BE3A6E2B0E07F
:101DF000A80EB91ECA1EDB1E11C0FE01EE5CFD4F0F
:101E0000608170E080E090E020E831E541E050E062
:101E10000E94FB17A60EB71EC81ED91E2196C41518
:101E2000D505B4F2D40112966C9170E080E090E098
:101E300020E13EE040E050E00E94FB177B018C0176
:101E4000F401618170E080E090E02CE330E040E05C
:101E500050E00E94FB17E60EF71E081F191FD40161
:101E60008C91E80EF11C011D111D14966C9170E00F
:101E700061507040882777FD8095982F20E831E5E4
:101E800041E050E00E94FB17E60EF71E081F191FE5
:101E9000EA0CFB1C0C1D1D1DB701C801DF91CF9181
:101EA0001F910F91FF90EF90DF90CF90BF90AF9078
:101EB0009F908F907F906F905F904F900895609368
:101EC000CC027093CD028093CE029093CF022091EA
:101ED0002F02309130024091310250913202260F90
:101EE000371F481F591F2093D0023093D1024093CF
:101EF000D2025093D30282E090E09093D502809377
:101F0000D4020E9495126093DD027093DE028093EA
:101F1000DF029093E0020895EF92FF920F93F70192
:101F2000E436F1051CF0E25BF74001C07E96E093D9
:101F3000DC020093DB022093DA028093D8026093E4
:101F4000D7024093D60286ED92E00E94880E0E944E
:101F50005F0F0F91FF90EF900895EF92FF920F9314
:101F60001F931CC02F5F3F4F4F4F5F4F2093CC02FA
:101F70003093CD024093CE025093CF0288EE93E08F
:101F8000A0E0B0E0E80EF91E0A1F1B1FE092DD0280
:101F9000F092DE020093DF021093E0020E9495129D
:101FA000E090DD02F090DE020091DF021091E0028D
:101FB0006E197F09800B910B2091CC023091CD02DC
:101FC0004091CE025091CF02685E734080409040B5
:101FD00048F68091D0029091D102A091D202B091A6
:101FE000D302281739074A075B07E8F0E091CA02D5
:101FF000F091CB023097B9F0099561157105810513
:10200000910519F00E945F0F0EC020E030E0809132
:10201000D4029091D502892B11F021E030E0309369
:10202000D5022093D4026091CC027091CD028091B0
:10203000CE029091CF021F910F91FF90EF900895E3
:102040000E94AD0F0E947F0E08950E94AD0F0E9466
:10205000590E8091DB0290E008950E94AD0F0E941E
:10206000590E8091D90290E008950E94AD0F0E9410
:10207000590E8091DA0290E008950E94AD0F0E94FF
:10208000590E8091D60290E008950E94AD0F0E94F3
:10209000590E8091D70290E008950E94AD0F0E94E2
:1020A000590E8091D80290E008950F931F938C01F0
:1020B000FC01868160E00E94E01381E090E00E94D4
:1020C000FC12F801868161E00E94E01381E090E05B
:1020D0000E94FC12F801868160E00E94E01384E611
:1020E00090E00E94FC121F910F910895CF92DF9211
:1020F000EF92FF920F931F93CF93DF93D82EC92EA9
:10210000282F392FC9018C01C0E0D0E0E62EFF2432
:10211000F801878161E00E94A113B7010C2E02C073
:10212000759567950A94E2F76170F80187810E94BE
:10213000E01321960F5F1F4FC830D10549F78D2D51
:102140009C2D0E945510DF91CF911F910F91FF9010
:10215000EF90DF90CF900895CF92DF92EF92FF92B1
:102160000F931F93CF93DF93D82EC92E282F392F8B
:10217000C9018C01C0E0D0E0E62EFF24F801878180
:1021800061E00E94A113B7010C2E02C075956795FE
:102190000A94E2F76170F80187810E94E0132196AA
:1021A0000F5F1F4FC430D10549F78D2D9C2D0E9424
:1021B0005510DF91CF911F910F91FF90EF90DF901D
:1021C000CF9008951F93CF93DF93EC01162F8C814E
:1021D000642F0E94E0138D818F3F19F060E00E9410
:1021E000E0138F8584FF05C0CE01612F0E94761019
:1021F0000EC0612F70E084E0759567958A95E1F7D0
:10220000CE010E94AC10CE01612F0E94AC10DF9174
:10221000CF911F91089541E00E94E21081E090E08B
:10222000089540E00E94E2100895FC016089862F25
:102230008460808B6C60CF010E9411110895DF9340
:10224000CF93CDB7DEB728970FB6F894DEBF0FBE99
:10225000CDBF9C01FE013196A7E4B2E088E00D906D
:1022600001928150E1F7F9018389481710F0482F56
:102270004150E42FF0E0EE0FFF1FEC0FFD1F8181B6
:10228000680F6068C9010E94111128960FB6F89472
:10229000DEBF0FBECDBFCF91DF91089562E00E94F7
:1022A000111180ED97E00E94FC12089561E00E94F8
:1022B000111180ED97E00E94FC120895CF93DF93F7
:1022C000EC01423018F08F8588608F874B8B1C8A19
:1022D000222329F0413019F48F8584608F8780E5AF
:1022E00093EC0E94FC128C8160E00E94E0138E81CE
:1022F00060E00E94E0138D818F3F19F060E00E9442
:10230000E0136F8564FD1DC0CE0163E00E94AC1038
:1023100084E991E10E94FC12CE0163E00E94AC10BE
:1023200084E991E10E94FC12CE0163E00E94AC10AE
:1023300086E990E00E94FC12CE0162E00E94AC109F
:1023400016C06062CE010E94111184E991E10E94E1
:10235000FC126F856062CE010E94111186E990E047
:102360000E94FC126F856062CE010E9411116F8580
:102370006062CE010E94111184E0888BCE010E9420
:102380001511CE010E94561182E0898BCE0166E0C4
:102390000E941111DF91CF9108956F927F928F92D9
:1023A000AF92CF92EF920F931F93DF93CF93CDB75E
:1023B000DEB73C01162F842FF30144832583068367
:1023C000E782C086A18682869D8593879E859487B5
:1023D0009F8595879889968761E00E94A113F301F4
:1023E00085818F3F19F061E00E94A113F30186817E
:1023F00061E00E94A113112319F0F301178603C0B5
:1024000080E1F3018787C30160E141E020E00E94A1
:102410005E11CF91DF911F910F91EF90CF90AF9010
:102420008F907F906F9008958F92AF92CF92EF929E
:102430000F931F93CF93DF93DC01362F542F722F0E
:10244000102FAE2C8C2C13961C921E92129783E4A4
:1024500092E011969C938E9300D000D0EDB7FEB71A
:102460003196CDB7DEB71982118212821382CD0167
:1024700061E0432F2FEF052FE72EC12E0E94CD11D3
:102480000F900F900F900F90DF91CF911F910F91B0
:10249000EF90CF90AF908F9008951F920F920FB64C
:1024A0000F9211242F933F938F939F93AF93BF93DA
:1024B0008091E9029091EA02A091EB02B091EC02C6
:1024C0003091ED020196A11DB11D232F2D5F2D37F7
:1024D00020F02D570196A11DB11D2093ED02809390
:1024E000E9029093EA02A093EB02B093EC02809190
:1024F000E5029091E602A091E702B091E802019610
:10250000A11DB11D8093E5029093E602A093E7021E
:10251000B093E802BF91AF919F918F913F912F911E
:102520000F900FBE0F901F9018958FB7F8942091C1
:10253000E9023091EA024091EB025091EC028FBF28
:10254000B901CA0108959B01AC017FB7F89480914D
:10255000E5029091E602A091E702B091E80266B52B
:10256000A89B05C06F3F19F00196A11DB11D7FBF4B
:10257000BA2FA92F982F8827860F911DA11DB11D55
:1025800062E0880F991FAA1FBB1F6A95D1F7BC0193
:102590002DC0FFB7F8948091E5029091E602A091DA
:1025A000E702B091E802E6B5A89B05C0EF3F19F03D
:1025B0000196A11DB11DFFBFBA2FA92F982F882703
:1025C0008E0F911DA11DB11DE2E0880F991FAA1F5A
:1025D000BB1FEA95D1F7861B970B885E9340C8F224
:1025E000215030404040504068517C4F211531050A
:1025F0004105510571F60895019739F0880F991F2B
:10260000880F991F02970197F1F70895789484B580
:10261000826084BD84B5816084BD85B5826085BDDE
:1026200085B5816085BDEEE6F0E0808181608083C4
:10263000E1E8F0E0108280818260808380818160A7
:102640008083E0E8F0E0808181608083E1EBF0E06E
:10265000808184608083E0EBF0E080818160808312
:10266000EAE7F0E0808184608083808182608083FB
:102670008081816080838081806880831092C10026
:1026800008951F93CF93DF93182FEB0161E00E9411
:10269000A113209709F44AC0CF3FD10509F449C0DE
:1026A000E12FF0E0E255FF4F84918330C1F0843098
:1026B00028F4813051F08230B1F50CC0863019F128
:1026C000873049F1843079F514C084B5806884BDC1
:1026D000C7BD33C084B5806284BDC8BD2EC08091A3
:1026E0008000806880938000D0938900C093880028
:1026F00024C080918000806280938000D0938B0002
:10270000C0938A001AC08091B00080688093B000A6
:10271000C093B30012C08091B00080628093B0007B
:10272000C093B4000AC0C038D1051CF4812F60E00A
:1027300002C0812F61E00E94E013DF91CF911F91D1
:102740000895CF93DF93482F50E0CA0186569F4FDC
:10275000FC0134914A575F4FFA018491882369F153
:1027600090E0880F991FFC01E859FF4FA591B491A3
:10277000FC01EE58FF4FC591D491662351F42FB759
:10278000F8948C91932F909589238C938881892339
:102790000BC0623061F42FB7F8948C91932F909511
:1027A00089238C938881832B88832FBF06C09FB792
:1027B000F8948C91832B8C939FBFDF91CF910895D8
:1027C000482F50E0CA0182559F4FFC012491CA0155
:1027D00086569F4FFC0194914A575F4FFA013491FE
:1027E000332309F440C0222351F1233071F0243007
:1027F00028F42130A1F0223011F514C02630B1F0B8
:102800002730C1F02430D9F404C0809180008F7744
:1028100003C0809180008F7D8093800010C084B5BC
:102820008F7702C084B58F7D84BD09C08091B000D0
:102830008F7703C08091B0008F7D8093B000E32F2D
:10284000F0E0EE0FFF1FEE58FF4FA591B4912FB7A8
:10285000F894662321F48C919095892302C08C9181
:10286000892B8C932FBF0895682F70E0CB01825580
:102870009F4FFC012491CB0186569F4FFC01449150
:102880006A577F4FFB019491992319F420E030E0BF
:102890003CC0222351F1233071F0243028F4213040
:1028A000A1F0223011F514C02630B1F02730C1F06C
:1028B0002430D9F404C0809180008F7703C08091C8
:1028C00080008F7D8093800010C084B58F7702C018
:1028D00084B58F7D84BD09C08091B0008F7703C01F
:1028E0008091B0008F7D8093B000892F90E0880F99
:1028F000991F84589F4FFC01A591B4918C9120E0C1
:1029000030E0842311F021E030E0C90108950895FA
:102910001F920F920FB60F9211242F933F934F9354
:102920008F939F93EF93FF938091C00082FD1DC012
:102930004091C60020912E0330912F032F5F3F4F0F
:102940002F7330708091300390913103281739072D
:1029500071F0E0912E03F0912F03E251FD4F40837F
:1029600030932F0320932E0302C08091C600FF9165
:10297000EF919F918F914F913F912F910F900FBEAB
:102980000F901F901895E0918203F0918303E05C13
:10299000FF4F8191919120813181821B930B8F7325
:1029A0009070892B11F00E94871408951F920F9246
:1029B0000FB60F9211242F933F938F939F93EF9312
:1029C000FF9320917203309173038091740390916F
:1029D00075032817390731F48091C1008F7D8093EA
:1029E000C10014C0E0917403F0917503EE5CFC4FDC
:1029F0002081809174039091750301968F7390707C
:102A000090937503809374032093C600FF91EF9118
:102A10009F918F913F912F910F900FBE0F901F901C
:102A20001895AF92BF92DF92EF92FF920F931F9390
:102A3000CF93DF93EC017A018B01DD24403081EEEE
:102A4000580780E0680780E0780711F0DD24D39410
:102A500091E0A92EB12CEC89FD89DD2069F0C5013A
:102A600008A002C0880F991F0A94E2F7808360E0F3
:102A700079E08DE390E005C0108260E874E88EE1B3
:102A800090E0A80197010E942D182150304040404D
:102A90005040569547953795279580E12030380767
:102AA00020F0DD2011F0DD24D6CFE889F9893083CC
:102AB000EA89FB89208319A2EE89FF89408121E000
:102AC00030E0C9010C8C02C0880F991F0A94E2F70C
:102AD000482B4083EE89FF894081C9010D8C02C0DB
:102AE000880F991F0A94E2F7482B4083EE89FF89EB
:102AF0004081C9010E8C02C0880F991F0A94E2F729
:102B0000482B4083EE89FF8980810F8C02C0220F01
:102B1000331F0A94E2F7209528232083DF91CF9179
:102B20001F910F91FF90EF90DF90BF90AF900895AD
:102B3000DC011C96ED91FC911D97E05CFF4F21910B
:102B4000319180819181281B390B2F733070C9011D
:102B50000895DC011C96ED91FC911D97E05CFF4F00
:102B600020813181E054F040DF01AE5BBF4F8D9199
:102B70009C9111972817390719F42FEF3FEF07C0E1
:102B80008D919C91E80FF91F8081282F30E0C901B9
:102B90000895DC011C96ED91FC911D97E05CFF4FC0
:102BA00020813181E054F040DF01AE5BBF4F8D9159
:102BB0009C9111972817390719F42FEF3FEF10C098
:102BC0008D919C911197E80FF91F20818D919C9117
:102BD000119701968F73907011969C938E9330E0AD
:102BE000C9010895DC0191968C919197882339F061
:102BF0005496ED91FC915597808186FFF9CF91967F
:102C00001C920895CF93DF93EC01EE85FF85E05C85
:102C1000FF4F20813181E054F0402F5F3F4F2F73F1
:102C20003070DF01AE5BBF4F8D919C9111972817DB
:102C30003907D1F3E05CFF4F80819181E054F0408F
:102C4000E80FF91F6083EE85FF85E05CFF4F31835D
:102C50002083EE89FF89208181E090E00F8C02C003
:102C6000880F991F0A94E2F7282B208381E089A31B
:102C7000EC89FD8980818064808381E090E0DF9130
:102C8000CF910895109279031092780388EE93E023
:102C9000A0E0B0E080937A0390937B03A0937C0341
:102CA000B0937D0383E592E090937703809376035E
:102CB0008EEE92E0909383038093820382E393E00D
:102CC000909385038093840385EC90E09093870331
:102CD0008093860384EC90E090938903809388032B
:102CE00080EC90E090938B0380938A0381EC90E0DA
:102CF00090938D0380938C0382EC90E090938F03EC
:102D000080938E0386EC90E09093910380939003E0
:102D100084E08093920383E08093930387E0809321
:102D2000940385E08093950381E080939603089552
:102D3000CF93DF930E9406130E94D209C3ECD4E123
:102D40000E9423022097E1F30E94C314F9CFCF928F
:102D5000DF92EF92FF920F931F93CF93DF937C014B
:102D60006B018A01C0E0D0E00FC0D6016D916D010A
:102D7000D701ED91FC910190F081E02DC7010995FB
:102D8000C80FD91F015010400115110571F7CE0170
:102D9000DF91CF911F910F91FF90EF90DF90CF9037
:102DA0000895EF92FF920F931F938C01DC01ED9138
:102DB000FC910190F081E02D6DE009957C01D80136
:102DC000ED91FC910190F081E02DC8016AE0099538
:102DD0009C012E0D3F1DC9011F910F91FF90EF9097
:102DE0000895CF93DF93EC016115710519F420E08C
:102DF00030E00FC0DB010D900020E9F71197A61B12
:102E0000B70BE881F9810280F381E02DAD010995CE
:102E10009C01C901DF91CF9108954F925F927F92FB
:102E20008F929F92AF92BF92CF92DF92EF92FF92DA
:102E30000F931F93DF93CF93CDB7DEB7A1970FB654
:102E4000F894DEBF0FBECDBF2C01742ECB01223013
:102E500008F42AE019A231E2C32ED12CCC0EDD1EDB
:102E6000822E9924AA24BB24672D752FA5019401D5
:102E70000E942D1879018A01C801B701A5019401AA
:102E80000E94FB17472D461B0894C108D1084A3001
:102E900014F4405D01C0495CF6014083E114F10483
:102EA0000105110521F07E2C5F2DC801DDCFC20187
:102EB000B6010E94F116A1960FB6F894DEBF0FBEC0
:102EC000CDBFCF91DF911F910F91FF90EF90DF90D9
:102ED000CF90BF90AF909F908F907F905F904F90DA
:102EE0000895DC012115310541F4ED91FC9101902B
:102EF000F081E02D642F099508950E940D17089523
:102F0000EF92FF920F931F939A01E62EFF2400E0A9
:102F100010E0B801A7010E9471171F910F91FF9057
:102F2000EF900895CF92DF92EF92FF920F931F934D
:102F3000CF93DF93EC016A017B012115310541F448
:102F4000E881F9810190F081E02D642F09951FC07F
:102F50002A303105D1F477FF17C0E881F98101905B
:102F6000F081E02D6DE209958C0144275527BA01C7
:102F70004C195D096E097F09CE012AE00E940D17E8
:102F80009801280F391F04C02AE00E940D179C01E8
:102F9000C901DF91CF911F910F91FF90EF90DF90CA
:102FA000CF900895EF92FF920F931F937B019A01A8
:102FB0000027F7FC0095102FB801A7010E94921777
:102FC0001F910F91FF90EF9008950E94F1160895C0
:102FD000EF92FF920F931F937C010E94F1168C01D8
:102FE000C7010E94D116080F191FC8011F910F9128
:102FF000FF90EF900895629FD001739FF001829F30
:10300000E00DF11D649FE00DF11D929FF00D839F77
:10301000F00D749FF00D659FF00D9927729FB00D14
:10302000E11DF91F639FB00DE11DF91FBD01CF0127
:103030001124089597FB092E07260AD077FD04D0A6
:103040002ED006D000201AF4709561957F4F089518
:10305000F6F7909581959F4F0895A1E21A2EAA1B2D
:10306000BB1BFD010DC0AA1FBB1FEE1FFF1FA21738
:10307000B307E407F50720F0A21BB30BE40BF50B35
:10308000661F771F881F991F1A9469F760957095BE
:10309000809590959B01AC01BD01CF010895AA1BBD
:1030A000BB1B51E107C0AA1FBB1FA617B70710F033
:1030B000A61BB70B881F991F5A95A9F78095909565
:1030C000BC01CD010895EE0FFF1F0590F491E02D96
:0630D0000994F894FFCF03
:1030D6002020466163746F727920526573657400AF
:1030E60030300030310030320030330030340030C0
:1030F600350030360030370030380030390053554F
:103106004E004D4F4E005455450057454400544817
:10311600550046524900534154002020002F0020FC
:10312600003A0050554D502030313A004F4E004F76
:103136004646002030323A002030333A0020303400
:103146003A005000205355204D2054552057205406
:10315600482046205341004F4E2000202A00205F81
:103166000020202A0020205F002020446F73696E13
:10317600673A005E002020204E6F20416C61726D20
:10318600732053657400535500204D00205455009C
:10319600205700205448002046002053410020209C
:1031A6002020446F73696E672E2E2E2E2E0020531C
:1031B6004D41525420415155415249554D002050E0
:1031C6006C65617365205365742054696D650043B1
:1031D6006F6E74726F6C3120656E746572656420F3
:1031E6006865726500436F6E74726F6C3220656E2F
:1031F600746572656420686572650001000E002CB6
:103206000100001F1C1F1E1F1E1F1F1E1F1E1F004A
:103216000000000B11A71600004000140054000027
:103226000000000216A7169815C915A915F2150073
:00000001FF
